:020000040000FA
:100000000CD0EED0FFFFFFFFFFD082BEF4D0040083
:1000100082AEFED71200FFFFFFD0A66AA968AA68C9
:10002000A680A84A05D0A84CEBD0066E310ECD6E46
:10003000949C900EAB6E260EAC6EAB98030ED56EF4
:10004000D76AD66AD8D8D58ED6D8D59ED6CF03F063
:10005000D7320332D8A0030603C0AFFFAB88AE503F
:10006000AE50B6D80F0AE9E100EE08F0006A016A66
:10007000AFD80F0AF6E00450040A0AE00450050A5B
:1000800001E1A6D804500026EE6E014ED6D7F0D777
:100090000052D3E1CD900A50F66EA96E0B50F76E68
:1000A000AA6E0CC0F8FF00EE0DF00950016ED8B436
:1000B000FF0008500808C1E3FA6AFB6A0844F92601
:1000C00008D01ED025D034D03ED048D019D052D040
:1000D000FF00EE50AF02F446F446FC0EF416F34671
:1000E000F346030EF314F424A86E040EA66E78D81B
:1000F000A6B2FED70C0E0A6E000E0B6E040E45D093
:100100000900F5CFEEFF012EFBD70950050F3DD0BA
:10011000F80EF616080EEECFF5FF0D00E82EFBD711
:100120000A00840EA66E5CD80900012EF1D72CD0EF
:10013000940EA66E55D8400EF626E86AF722F822ED
:10014000012EF6D721D0A66AA680A8CFEEFFA94A35
:10015000AA2A012EF8D70950050F17D0EECFA8FF15
:10016000040EA66E3DD8A6B2FED7A94AAA2A012E31
:10017000F5D70AD0C40EA66EEECFF5FF0C0030D82E
:100180000900012EF7D700D0010E016E0F0E1BD80B
:100190001AD8006A00EE08F0EE50002608D8012EAA
:1001A000FBD7006C005003D8040E0DD846D7056E5F
:1001B0000F0A06E00550040A03E00550050A02E1B3
:1001C000050E01D8055004009EA8FED7AD6E1200A2
:1001D0000400ABB2FF009EAAFED7AE50046E120020
:1001E0000400550EA76EAA0EA76EA682000012008C
:1001F000FFFFFFFFFFFF9EA008D79E90062E05D7AA
:040200009DEF02F07C
:040208000EEF01F004
:080218000FEF01F01100006E70
:10022000D8CF01F0E0CF02F0100002C0E0FF005094
:1002300001C0D8FF1000000E0F6E75EC01F00F0624
:1002400001E1120062EC01F00D50066E85EC01F048
:10025000010BD8A41DEF01F00E50066E85EC01F0E5
:10026000010BD8A41DEF01F062EC01F00D50066EF9
:1002700085EC01F0010BD8A41DEF01F00990B2EC60
:1002800001F008C00AF00990B2EC01F008C00BF0D0
:100290000980B2EC01F008C00CF075EC01F00D50D3
:1002A000106E0EC011F00D50126E0AC013F00BC08C
:1002B00014F0156AD8EC01F00C501518D8A41DEFF5
:1002C00001F012009488050E7FEC02F09486050E72
:1002D0007FEC02F082989498050E7FEC02F08296F3
:1002E0009496050E7FEC02F0120082969496050E0D
:1002F0007FEC02F082989498050E7FEC02F09486D1
:10030000050E7FEC02F094881200066E080E076E50
:1003100009900636D8B0098096EC01F0072E88EFD8
:1003200001F0C1EC01F009A2000C010C09B09DEF35
:1003300001F0829894989FEF01F0948800009486D1
:1003400000000000000000000000000000000000AD
:10035000000000000000000000008296949600005B
:1003600000001200086A080E076ED8900836C1EC2B
:1003700001F009B20880072EB6EF01F096EC01F00B
:10038000120009829488948600000000000000009A
:10039000000000000000000000000000000000005D
:1003A000000082A809928296949600000000120034
:1003B000070E1B6E010E1A6E196A186A176A166A02
:1003C0002F0E1C6E10BE7BD01C0610BC78D01C06F5
:1003D00010BA75D01C0610B872D01C0610B66FD0BB
:1003E0001C0610B46CD01C0610B269D01C0610B0EC
:1003F00066D01C0611BE63D01C0611BC60D01C0662
:1004000011BA5DD01C0611B85AD01C0611B657D0CF
:100410001C0611B454D01C0611B251D01C0611B0E8
:100420004ED01C0612BE4BD01C0612BC48D01C0677
:1004300012BA45D01C0612B842D01C0612B63FD0E4
:100440001C0612B43CD01C0612B239D01C0612B0E5
:1004500036D01C0613BE33D01C0613BC30D01C068D
:1004600013BA2DD01C0613B82AD01C0613B627D0F9
:100470001C0613B424D01C0613B221D01C0613B0E2
:100480001ED01C0614BE1BD01C0614BC18D01C06A3
:1004900014BA15D01C0614B812D01C0614B60FD00E
:1004A0001C0614B40CD01C0614B209D01C0614B0DF
:1004B00006D0106A116A126A136A146A1200080ED2
:1004C0001C5C1D6ED8901D5208E01B361A3619367A
:1004D0001836173616361D2EF6D71650101A175026
:1004E000111A1850121A1950131A1A50141A1B50B4
:1004F000151A5ED70F0EC16E948694881200056E91
:10050000052EFED71200070E036E1A0E046EFC0EA7
:10051000056E052EFED7042EFAD7032EF6D712004D
:100520001C0E036E1A0E046EFC0E056E052EFED711
:10053000042EFAD7032EF6D712007AEC02F0000E42
:100540000D6E070E0E6E90EC02F01BEC01F090ECBD
:0C05500002F090EC02F090EC02F0F7D703
:020000040030CA
:0300010082041E58
:020005008181F7
:060008000F800FA00F00A5
:0200000400F00A
:0200FE00664456
:00000001FF
