:020000040000fa
:080000000002040000000000f2
:020000040000fa
:10000800d8030000d8030000d8030000d80300007c
:10001800d8030000d8030000d8030000d80300006c
:10002800d8030000d8030000d8030000d80300005c
:10003800d8030000d8030000d8030000d80300004c
:020000040000fa
:020000040000fa
:100400000f8020000e7f22000e01880000000000f7
:1004100000012000200288000c00070080872000d7
:100420000100200011000700000020000000e00093
:10043000020032000000020000000000ac020200d6
:10044000000000000040da000000fe004440a90067
:10045000000020000000e000030032000000200047
:10046000a00188004440a800000006009101880017
:10047000800078000000eb0015003700e2804000ab
:1004800032a0b4009101ba00e280400032a0b40072
:100490009102ba00e280400032a0b4000002eb00fa
:1004a000472bde00f507b200602ce10004003a00a3
:1004b0000059eb008301e900fdff3e000400370016
:1004c0006128e100010032000082eb000400070017
:1004d0001101ba000200e000e8ff3a000000060047
:1004e0003159ba008301e9000c0032002159ba00e9
:1004f0008301e900080032000400e00003003a0034
:10050000e280400032a0b400f5ff370011d9ba00f4
:100510008301e900faff3a008100e800e180400031
:1005200032a0b400000006003400f800881f7800f4
:1005300008002000a80188004f0478000000fa009d
:100540000080fa003400f900004006000000fa00c4
:100550000080fa00000006000800fa0015000700fd
:100560000042eb00044f780074c0b30014479800b9
:100570004084240001002000d00207009e4090002b
:100580001e4078001200070000027800140798004f
:100590001e009000700007000002be0024079800b3
:1005a00035079800006a280011002000c3020700e8
:1005b000f2ff37000000fa00f40020000419880060
:1005c000c882a800c862a8000080fa0000000600e7
:1005d0001000fa00604f9800714f98000042eb0045
:1005e0002447980005003700000000000300370092
:1005f0000000000001003700000000009901070022
:100600002e4290000442e900244798002e429000b8
:10061000e04f5200340032007d0107006e48900028
:10062000a201070000427800e04f5200eeff3a00be
:100630007e4890009d01070000427800e04f520084
:10064000ebff3a00720107006e4890009701070027
:1006500000427800e04f5200e7ff3a000040eb0014
:10066000de01070000427800044f78000040eb00f4
:10067000da010700004278001447980010c0b30068
:10068000d601070000427800344798007501070042
:100690006e4a9000544f9800fe4a9000454f9800d3
:1006a0006e4a9000344f98009e427800254f980083
:1006b0001e429000144f98000042eb00044f980037
:1006c0006802470004007800e30107000042780058
:1006d00044479800ce4290003e42900084cf5200a2
:1006e000c6ff3a0001003700000000006602470024
:1006f0001e4a7800660247000402e8009e4290000d
:10070000054a78003e029000040078000080fa005c
:10071000000006000000fa00ca62a900c862a90031
:1007200080ce21000100200064020700c862a800fa
:100730000080fa00000006000200fa00004f780076
:10074000330107001e4078005801070045010700eb
:100750000080fa00000006000600fa00200798005a
:100760002e029000050020000400be00700007006b
:100770000002be00a2702d0033ca23000400be0098
:10078000ab0007000002be0032332900833824008a
:100790000400be00080007000002be00048fbe0077
:1007a0001e02be000400be000080fa000000060029
:1007b0000040da000000fe0003f0a200889fbe00a7
:1007c0008a9fbe008c1f78008100070088003300dc
:1007d0006450e1004f0032006420e100520032001a
:1007e00003826c0007003b000905d0000306d0001f
:1007f000820f54000c065d00020039000200320036
:1008000089017800030678008582550004003d00c8
:100810000003fd008103fd008502ea008b85420094
:10082000840f720002003b0060001000e08018009e
:100830006011b8000005eb007a28e1000a003900d9
:1008400006007800c75ddd00f707b20087807500fd
:100850002d003700828171000a0178006105600077
:100860008180d1000080d3008502e900f9ff3b00c0
:10087000060440008784480002003b006004140026
:10088000e0841c000988a300070032008a817100ff
:1008900082817100610164008904d1000884d30061
:1008a0008b05e800170037000978a30013003a0011
:1008b0000b00e000130034008b05e900080444003d
:1008c00089844c000a4474000978a3000d003a00a2
:1008d0000b00e000070034008b05e9000804440029
:1008e00089844c0001003a000b0020000978a30025
:1008f000f7ff32000001eb00020037008281710037
:100900000a0178000c0007000cf0a70001f0a0001d
:10091000400037006420e10002003a00838f6c0041
:10092000400033000801be000200be00390037005d
:100930006011b8007200370081002000618055000e
:100940000b003d000b00200061fe2f000100e100c4
:100950001d00340082817100610164008904d100ae
:100960000884d3000000e800faff3a00710020007c
:1009700061006400030070000200600009003200a2
:1009800061044400e0844c000988a50005003200a1
:100990008b05e8006808e10002003a008904d100f4
:1009a0000884d300f20f20000258e10005003d004a
:1009b000c75ddd00f907b200898075000800780086
:1009c000000006000bf827008b00780000000500ef
:1009d0000004be00790007000003be000405be004d
:1009e0000200be0075000700844f7500000006007d
:1009f0000200be006450e100050036006420e10002
:100a0000020036000968a30001003a000800be0099
:100a10000160a0004f0678004f05be004f04be00e5
:100a200000000600f0ff2f00f1ff2700f9ff37005c
:100a3000889fbe008a9fbe008c1f7800e4ff0700dd
:100a4000ebff330003866c006450e10024003200a9
:100a50006420e100270032006150e10022003200f2
:100a60006120e100210032008b854200eb07b100dc
:100a70000134b800003ab8000804420089844a00f2
:100a8000013ab8000030b8008880400009014a00ef
:100a9000040033000000400081804800020149004a
:100aa0008b05e900c909dd008301700001003200f7
:100ab00013002000c814de004814dd004709de00e2
:100ac0001200b200c808de00088470009aff070018
:100ad00001f0a1000cf0a70001f0a000cdff37004d
:100ae0006120e100cfff32000801be000200be001d
:100af000f7ff37006150e100fcff3a00c9ff370003
:100b0000889fbe008a9fbe000082700004027100b0
:100b100004827100260032000004be000200be0004
:100b20006011b8006b092000950220000182cf00ff
:100b30000a0039000541b1000082cf0007003900ea
:100b40000541b1000982cf00040039000541b10020
:100b50000882cf00010039000541b1000542520072
:100b6000120032000a003b008281710061016400c2
:100b70008100d1000080d3008984d3000884d30091
:100b80008b05e8000442e800f7ff3a000700370051
:100b90000804440089844c0000004800818048001b
:100ba0008b05e9000442e900f9ff3a0062ff070003
:100bb0004f05be004f04be0000000600c70ade005d
:100bc000f107b200f50fb20008003200e1cf420099
:100bd000020032000170a00024000500810f7000a7
:100be000010032000408050044000500810f700078
:100bf00002003a00140005008502e90000004000f0
:100c000081c04800fcff3b000170a00024000500eb
:020000040000fa
:100c10000000fa00c882a800200020000100200087
:100c200018010700c862a800200020000100200071
:100c300014010700ca82a900c882a9002000200070
:100c4000010020000f010700ca62a900c862a900c4
:100c500020002000010020000a0107000080fa00a7
:100c6000000006000000fa00ca62a900c862a900dc
:100c7000200020000100200002010700ca82a90014
:100c8000c882a9002000200001002000fd0007000c
:100c9000c862a8002000200001002000f900070021
:100ca000c882a8000080fa00000006000600fa00d2
:100cb0004047980084c0b300044f78000e0037000e
:100cc0004e429000e04f520003003d0014c0b300bc
:100cd00014479800020037000042eb0014479800c8
:100ce0001e4090000e0007004e4290000442420059
:100cf000444798001e4fe9001e427800e04f520022
:100d0000efff3a001d0007000042780024479800da
:100d10002e429000044078000080fa000000060097
:100d20000200fa00004f78001e427800e04f5200a7
:100d300003003a00ca82a900c882a9000100370056
:100d4000c882a800000000000000000000000000b1
:100d5000c862a8003000200001002000c900070080
:100d6000ca62a900c862a90030002000010020006a
:100d7000c40007000080fa00000006000200fa002c
:100d8000c882a800c862a80030002000010020002e
:100d9000bc0007005416800070026200e00f520091
:100da0000300320014c0b300044f78000200370083
:100db0000042eb00044f7800ca62a900c862a90093
:100dc0003000200001002000ae0007001e42780025
:100dd000044078000080fa00000006000400fa00d9
:100de0002047980084c0b3001447980011003700d2
:100df000e2ff070000427800e04f52000500320099
:100e00001e42780004424200044f78001e04a000f5
:100e1000050037001e42780004424200044f78006b
:100e2000e4cfb3001e4f62001e4290000442e9006e
:100e3000144798001e429000e04f5200ecff3a0029
:100e40002e409000b6ff07001e4278000440780054
:100e50000080fa00000006000e00fa00600798000b
:100e6000f4c2b300044f78000042eb00244f980016
:100e70000042eb00144f98000042eb00044f980032
:100e80000042eb007447980014c0b3006447980018
:100e900074c0b30054479800f4c2b300044f780004
:100ea0000042eb001447980054c0b3002447980058
:100eb0000042eb00344798000d0037001e4fe90058
:100ec0003e429000e64f520004003e003e42900039
:100ed0000442e80034479800050037000042eb0068
:100ee000344798002e4290000442e90024479800bd
:100ef0002e4290000482fb00ee0290000482420029
:100f0000144278008482fb003e4290000482fb0081
:100f10000608200004b2de0004826200e00f5200e6
:100f200003003a002e429000e04f5200e3ff3a00e7
:100f30009e42780068c25200144798002e00370085
:100f400054c0b30024479800250037002e4290007b
:100f50000482fb000402e9000402470054429000ae
:100f6000e04f520006003d002e429000e04f52003c
:100f70000300320014c0b300444798000200370059
:100f80000042eb00444798002e4290008482fb0010
:100f90002e4290000482fb0004024700544290005d
:100fa0000442420085024700d44298002e4290003d
:100fb0000483fb002e4290000482fb0004024700e1
:100fc000d44290004e42900004c242008602470084
:100fd000d44298002e4290000442e9002447980031
:100fe0002e429000e14f4200d8ff3a001e4290008e
:100ff0000442e900144798001e429000e04f52005e
:10100000cfff3a000042eb0024479800120037005f
:101010002e4290000482fb00ee0290000483420006
:101020002e4290000482fb00ee02900004824200f7
:10103000944278002e4290000482fb000402470094
:101040005442900004c26a00044b78002e42900083
:101050000442e800244798002e429000e54f5200d9
:10106000ebff36001e427800e84f52007eff3e0044
:101070006e02900014427800044078000080fa006c
:041080000000060066
:020000040000fa
:10108400f03fb1000180b10006003500ee03090015
:1010940000000000403fb1000180b100fbff3d00b3
:1010a4001000b000203fb0000200350000800900ad
:0810b40000000000000006002e
:020000040000fa
:1010bc000400fa00008fbe00040037000082eb0031
:1010cc008082eb001e0f42005e974a001e02be009b
:1010dc00e00f5200e08f5a00f8ff3a000080fa004f
:0410ec0000000600fa
:020000040000fa
:0410f00000000000fc
:020000040000fa
:020000040001f9
:0457f000bfff0000f7
:020000040000fa
:020000040001f9
:0457f400ff9f000013
:020000040000fa
:020000040001f9
:0457f800beff0000f0
:020000040000fa
:020000040001f9
:0457fc00ff7f00002b
:00000001FF
